:020000040800F2
:10000000780900209D010008854B00081D44000868
:10001000814B00081D040008815100080000000009
:100020000000000000000000000000002F4C00084D
:1000300091090008000000002D4C0008014D000847
:10004000B7010008B7010008B7010008B7010008B0
:10005000B7010008B7010008B7010008B7010008A0
:10006000B7010008B7010008B7010008F50800084B
:10007000B7010008B7010008B7010008B701000880
:10008000B7010008B7010008B70100086151000876
:10009000715100088104000865060008B7010008D6
:1000A000B7010008B7010008B7010008B701000850
:1000B000B7010008B7010008B7010008B701000840
:1000C000B7010008B7010008B7010008B701000830
:1000D000B7010008B7010008B7010008B701000820
:1000E000410C0008B7010008B7010008B70100087B
:1000F000B7010008B7010008B7010008B701000800
:10010000000000000000000000000000B70100082F
:10011000B7010008B7010008B7010008B7010008DF
:1001200005090008B7010008B7010008B701000879
:1001300015090008B70100080000000000000000D9
:10014000B7010008B7010008B7010008000000006F
:10015000000000000000000000000000000000009F
:100160000000000000000000B7010008B70100080F
:10017000B7010008000000000000000000000000BF
:1001800000000000B7010008DFF80CD000F05AF8BA
:1001900000480047ED5300087809002006488047D2
:1001A00006480047FEE7FEE7FEE7FEE7FEE7FEE75C
:1001B000FEE7FEE7FEE7FEE7C14D00088901000803
:1001C000202A04DB203A21FA02F00021704721FAAC
:1001D00002F3D040C2F12002914008431946704713
:1001E00040EA01039B0703D009E008C9121F08C0B9
:1001F000042AFAD203E011F8013B00F8013B521E39
:10020000F9D27047D2B201E000F8012B491EFBD2AF
:1002100070470022F6E710B513460A460446194611
:10022000FFF7F0FF204610BD30B50446002003461E
:1002300000E05B1C934203D2E05CCD5C401BF8D035
:1002400030BD0000064C074D06E0E06840F00103B9
:1002500094E8070098471034AC42F6D3FFF798FFB4
:100260000C5900082C59000870B505466C6A606C82
:1002700000F05000D0B9606C40F4007060642068F9
:10028000C06800F4406068B9E06958B9606C20F457
:1002900080706064606C00F4805018B9606C40F04D
:1002A00001006064204601F097F803E0E06B016B09
:1002B0002846884770BD70B505466C6A606C40F092
:1002C00040006064A06C40F00400A064204601F08F
:1002D0009EF870BD70B50446656A284601F096F830
:1002E00070BD70B5044600252068806800F00300EA
:1002F000012806D12068006800F0010008B1012043
:1003000000E0002080B32068806800F00D00012824
:1003100000D100E0002050B100BF2068806840F0AC
:1003200002002168886003202168086009E0606C91
:1003300040F010006064A06C40F00100A064012057
:1003400070BD02F0F3FC05460FE002F0EFFC401B2D
:1003500002280AD9606C40F010006064A06C40F084
:100360000100A0640120EBE705E02068806800F050
:1003700001000028E9D10020E2E7000070B5044642
:1003800000252068806800F00300012806D120685D
:10039000006800F0010008B1012000E0002088BBE7
:1003A000206880681849084008B9012000E0002052
:1003B00048B9606C40F010006064A06C40F001002F
:1003C000A064012070BD2068806840F001002168B1
:1003D000886002F0ABFC05460EE002F0A7FC401B73
:1003E000022809D9606C40F010006064A06C40F0F5
:1003F0000100A0640120E5E72068006800F001002A
:100400000028EAD00020DDE73F00008070B50446F8
:100410000D462946204602F07FFC70BD00BFFEE776
:10042000FEB504460F46E06800F0030008B3D4F8B8
:10043000B00140F2FF7101EA50554FF4DA700059F3
:1004400000F00F064FF4DC70005901904FF4DE709D
:10045000005902902846324601A905F0D9F8002833
:1004600002DA0520009000BFE06840F02000E06064
:1004700000BFFEBD416841F00401416070470000CB
:1004800010B5024801F082FB10BD0000DC03002023
:1004900070B504460D4600260DB9666B00E0A66BEC
:1004A000206800F5D87000EB0510006800F004002B
:1004B000B060B06840B9206800F5D87000EB051056
:1004C0000068400D306007E0206800F5D87000EB50
:1004D00005100068C0087060206800F5D87000EB57
:1004E0000510006800F002004008F060206800F588
:1004F000D87000EB0510406800F00F0030612068F4
:1005000000F5D87000EB0510406800F47F40000A49
:10051000F0613562206800F5D87000EB0510806846
:100520003075206800F5D87000EB0510806800F485
:100530007F40010A7175206800F5D87000EB051046
:10054000806800F47F00010CB175206800F5D87058
:1005500000EB05108068010EF175206800F5D87079
:1005600000EB0510C0683076206800F5D87000EB0D
:100570000510C06800F47F40010A7176206800F51C
:10058000D87000EB0510C06800F47F00010CB17654
:10059000206800F5D87000EB0510C068010EF176F8
:1005A00065B92068C06840F020002168C8602068F4
:1005B000406920F00A00216848610BE0206800696A
:1005C00040F02000216808612068406920F0500058
:1005D0002168486194F83D00222803D094F83D003A
:1005E000322805D12068406920F40F402168486115
:1005F000CDB994F83D00422804D0622806D0722874
:100600000CD107E0122084F83D000BE0322084F882
:100610003D0007E0522084F83D0003E0012084F80B
:100620003D0000BF19E094F83D00522804D0622834
:1006300006D072280CD107E0122084F83D000BE0B0
:10064000222084F83D0007E0422084F83D0003E0CA
:10065000012084F83D0000BF00BF204601F0CEFE1F
:10066000002070BD10B50348FFF704FF024801F0F9
:100670008DFA10BD00640040DC03002010B5044674
:100680002068406920F001002168486194F83D002D
:10069000122805D12068406920F40F402168486184
:1006A00094F83D00422804D0522806D072280CD17C
:1006B00007E0222084F83D000BE0322084F83D0062
:1006C00007E0622084F83D0003E0012084F83D004B
:1006D00000BF00BF204601F0F7FF002010BD70B53D
:1006E00092B004460E4615462660092060604FF021
:1006F0004041A1600021E1604FF4A021216100216F
:100700006161A1610121E161002121626162A16257
:10071000E162204601F056FB206C10B1002012B0BF
:1007200070BD282101A8FFF774FD0020079001206B
:100730000890002005900120099001A9204601F0B1
:1007400097F908B10020EAE724212846FFF761FD68
:1007500065631C210BA8FFF75CFD42200B90002075
:100760000D900E9002200F90CA208DF84000FE21BF
:100770000BA8417520634FF47A71204601F040FECA
:1007800008B10020CBE74FF47A720021204601F037
:100790003BFC78B928680B9988420BD128690F99DE
:1007A000884207D10F98820005F1140110A8FFF7C5
:1007B0003BFD08B10020B2E70021A160204601F016
:1007C00001FB206C08B10020A9E7162002F042FBD3
:1007D00000220421162002F04AFB142002F03AFB0A
:1007E00000220321142002F042FB012097E70000C1
:1007F000017806296AD2DFE801F003041E37506A47
:1008000066E034498988344A12881144334A118099
:100810003049C988304A12881144304A5180114603
:1008200009882F4A11812D494A882D494A81012181
:100830002B4A11714CE027498988274A1288891A66
:10084000284A11802349C988234A1288891A254ACF
:10085000518011460988224A918122494A882049BB
:10086000CA8101224A7133E01F4909881A4A128855
:10087000891A1E4A11801C494988174A1288891A08
:100880001A4A518011460988154A118217494A8827
:1008900013494A8201228A711AE0134909880E4AD3
:1008A00012881144124A11800F4949880A4A128855
:1008B00011440F4A518011460988094A91820C4916
:1008C0004A880749CA820122CA7101E000BF00BFFD
:1008D00000BF7047B40000205000002044000020FA
:1008E000C000002040000020660000204C000020D6
:1008F0004800002010B5024801F04EFF10BD000076
:100900001003002010B5024801F046FF10BD0000A2
:100910005403002010B5024801F03EFF10BD000056
:10092000980300200D4A016891420BD20C4A0168DD
:10093000891A1422B1FBF2F18900016408490839CF
:10094000C1630AE0054A0168891A1422B1FBF2F179
:100950008900016401490839C163704708040240F5
:100960000800024030B590F840500124AC40C56BFF
:100970006C60046863604468102C04D10468A26051
:100980000468E16003E00468A1600468E26030BDCF
:100990007047000010B507480068401C30B104F0F3
:1009A000E1FD044909683231884201D3012010BDBC
:1009B0000020FCE79400002010B507480068401CA8
:1009C00030B104F0CFFD044909683231884201D3C7
:1009D000012010BD0020FCE79800002010B507485A
:1009E0000068401C30B104F0BDFD044909680A31BB
:1009F000884201D3012010BD0020FCE788000020C0
:100A000010B507480068401C30B104F0ABFD044944
:100A100009680A31884201D3012010BD0020FCE79B
:100A20008C00002010B507480068401C30B104F06D
:100A300099FD044909686431884201D3012010BD41
:100A40000020FCE784000020034609B9002070471D
:100A5000187800F00F0010700120F8E701460A48EE
:100A6000007800F0020008B90020704711B1074873
:100A70000078087004480268006820F00100024B0A
:100A800018601046F1E700000402002090000020EA
:100A90001CB5044620788DF80000208800128DF8DF
:100AA0000100A0788DF80200608800128DF8030024
:100AB00020798DF80400A08800128DF80500A07937
:100AC0008DF80600E08800128DF8070004F04AFD5A
:100AD000044908600822694640F24E5004F0C2FD05
:100AE0001CBD00009400002038B5044620788DF825
:100AF0000000208800128DF80100A0788DF8020017
:100B0000608800128DF8030004F02CFD0449086091
:100B10000422694640F24F5004F0A4FD38BD0000A5
:100B2000980000201CB5044620788DF8000020882D
:100B300000128DF80100A0788DF802006088001284
:100B40008DF80300207908B1012000E000206179D0
:100B500009B1022100E0002108438DF80400A079CA
:100B60000007000E8DF8050004F0FCFC0449086045
:100B70000622694640F2411004F074FD1CBD0000DD
:100B8000880000201CB5044620788DF800002088DD
:100B900000128DF80100A0788DF802006088001224
:100BA0008DF80300207908B1012000E00020617970
:100BB00009B1022100E0002108438DF8040004F08F
:100BC000D1FC04490860052269464FF4A17004F085
:100BD00049FD1CBD8C00002038B50446207808B1C2
:100BE000012000E000208DF80000607808B10120AD
:100BF00000E00020A17809B1022100E000210843B3
:100C0000E17809B1042100E000210843217909B10C
:100C1000082100E000210843617909B1102100E0BA
:100C2000002108438DF8010004F09CFC0349086092
:100C300002226946402004F015FD38BD84000020E2
:100C400010B54FF4004001F06BFF10BD00200749C4
:100C5000C8610748006940F004000549086108467A
:100C6000006940F04000086170470000580500200E
:100C7000002002400021074AD1610749096941F07B
:100C80000201054A116111464861096941F04001BC
:100C90001161704758050020002002400022054BDA
:100CA000DA61054A126942F00102034B1A610180C0
:100CB00070470000580500200020024000200F4926
:100CC000C96801F01001102907D10D49C96941F027
:100CD00002010B4AD16140F010000849C96801F0D7
:100CE0000401042907D10649C96941F00101044AF8
:100CF000D16140F004000149C86070470020024003
:100D00005805002070B5044602F010F8054609E0C9
:100D1000601C38B124B102F009F8401BA04201D98F
:100D2000032070BD0F48C06800F001000028EFD11B
:100D30000C48C06800F02000202801D10949C86093
:100D40000848C06800F01000102805D00548C068A9
:100D500000F00400042803D1FFF7B0FF0120E0E712
:100D60000020DEE7002002401FB5044672B601F005
:100D7000BDFE34200849C860002001900294012083
:100D80000390694601A801F0F7FD62B601F04CFE40
:100D9000012004B010BD0000002002402DE9F04702
:100DA00004460D461646F01C4FEA900972B601F053
:100DB0009DFE24200C49C8602F464FF000080AE031
:100DC00057F804CB624600232146022001F036FE8C
:100DD000241D08F10108C845F2D362B601F024FED3
:100DE0000120BDE8F08700000020024070B595B0FA
:100DF00002460B460024186800B100BF1068B0F12D
:100E0000A04F02D15548009017E0544D1068A842F9
:100E100003D14FF0A04000900FE0514D1068A84260
:100E200002D15048009008E04E4D1068A84202D10F
:100E30004B48009001E000200090009810B901207C
:100E400015B070BD00BF92F84000012801D102200A
:100E5000F6E7012082F8400000BF10688068C0F308
:100E6000800000286ED100988068C0F380000028C0
:100E700068D11068B0F1A04F03D0384D1068A84277
:100E800001D1394800E039480146186880B35D68EF
:100E9000506B45EA40308D6825F4604528438860F2
:100EA0001068806800F00300012806D1106800680F
:100EB00000F0010008B1012000E00020C8BB00984C
:100EC000806800F00300012806D10098006800F057
:100ED000010008B1012000E0002050BB9D681868A7
:100EE00028438D6840F61F76B543284388602EE07E
:100EF000FFE7886820F4604088601068806800F030
:100F00000300012806D11068006800F0010008B154
:100F1000012000E0002060B90098806800F0030024
:100F2000012807D10098006800F0010010B10120ED
:100F300001E00CE0002050B9886840F61F75A84316
:100F4000886004E0506C40F020005064012400BF31
:100F5000002082F8400000BF204671E700010050E9
:100F6000000400500005005000030050000700502E
:100F7000F0B596B00246002500200090C868012810
:100F800000D000E000BF00BF92F84000012802D16D
:100F9000022016B0F0BD012082F8400000BF1068AA
:100FA0008068C0F38000002879D14868052812D2F3
:100FB0001068006B0E7906EB460677001F26BE40D0
:100FC000B0430F7907EB47077F000E68BE40304300
:100FD0001668306343E048680A2814D21068406BF2
:100FE0000E79761F06EB460677001F26BE40B043FB
:100FF0000F797F1F07EB47077F000E68BE40304325
:10100000166870632BE048680F2814D21068806B54
:101010000E790A3E06EB460677001F26BE40B04317
:101020000F790A3F07EB47077F000E68BE40304349
:101030001668B06313E01068C06B0E790F3E06EBC4
:10104000460677001F26BE40B0430F790F3F07EBDF
:1010500047077F000E68BE4030431668F063106893
:10106000806800F00C0008B1012000E0002000289A
:1010700070D108680A2813D3106880690E780A3E78
:1010800006EB46070726BE40B0430F780A3F07EB42
:1010900047078E68BE4030431668B06110E07EE1BD
:1010A000106840690E7806EB46070726BE40B0433D
:1010B0000F7807EB47078E68BE40304316687061B3
:1010C00048691668F668C6F3C106760000FA06F4A9
:1010D0000869012806D0022812D003281ED004284F
:1010E00039D129E01068006EB34E30400E784FF0D1
:1010F000004747EA8666264330431668306663E059
:101100001068406EAC4E30400E784FF0004747EA12
:101110008666264330431668706655E01068806E18
:10112000A54E30400E784FF0004747EA86662643CA
:1011300030431668B06647E01068C06E9E4E30407F
:101140000E784FF0004747EA86662643304316681C
:10115000F06639E039E01068006E00F0F8400E7873
:10116000B0EB866F05D11068006E20F00040166865
:1011700030661068406E00F0F8400E78B0EB866F75
:1011800005D11068406E20F0004016687066106847
:10119000806E00F0F8400E78B0EB866F05D11068D5
:1011A000806E20F000401668B0661068C06E00F0D7
:1011B000F8400E78B0EB866F05D11068C06E20F055
:1011C00000401668F06600BF00BF1068806800F03D
:1011D0000300012806D11068006800F0010008B182
:1011E000012000E00020002871D1C86801280AD041
:1011F0001068D0F8B0000F780126BE40B0431668E2
:10120000C6F8B00032E01068D0F8B0000F780126C0
:10121000BE4030431668C6F8B00008680A2813D3E9
:10122000106886690878093800EB40070720B84045
:1012300026EA00000E78093E06EB46068F68B740A6
:1012400038431668B06111E0106840690E78761C6A
:1012500006EB46070726BE40B0430F787F1C07EB1E
:1012600047078E68BE403043166870611068B0F161
:10127000A04F03D0514E1068B04201D1504800E059
:10128000504803460868102803D1986800F400000D
:1012900070B10868112803D1986800F0807038B1E7
:1012A0000868122813D1986800F4800000287BD1C8
:1012B0001068B0F1A04F02D14048019018E03F4EB5
:1012C0001068B04204D14FF0A040019010E05FE000
:1012D0003D4E1068B04202D13C48019008E03B4EC0
:1012E0001068B04202D13848019001E0002001901E
:1012F0001068806800F00300012806D110680068BB
:1013000000F0010008B1012000E00020C0BB0198FE
:1013100070B10198806800F00300012806D101989F
:10132000006800F0010008B1012000E0002038BB97
:101330000868102818D11068B0F1A04F14D198682F
:1013400040F40000986022480068224EB0FBF6F09E
:1013500000EB80004000009002E00098401E0090EA
:1013600000980028F9D11FE00868112809D11068F9
:10137000B0F1A04F05D1986840F08070986013E0FC
:1013800007E0086812280FD1986840F48000986040
:101390000AE0506C40F020005064012504E0506CDD
:1013A00040F020005064012500BF002082F840007A
:1013B00000BF2846EDE5000000F0FF83000100506B
:1013C00000030050000700500004005000050050CA
:1013D000B000002040420F007CB504460948408917
:1013E00008490989074DCDE90010EB88AA8869886A
:1013F000288804F045F9044A51882A46108904F0E7
:1014000041FA7CBDB4000020000000207047704706
:10141000F0B597B00446002600250020019014B9CD
:10142000012017B0F0BD206910B1606A00B100BFA3
:10143000606C00F01000002853D1606C98BB002055
:10144000A06400212165E06484F84000204600F09B
:101450004BF92068806800F0805020BB2046FEF7E2
:1014600040FF0646606C00F01000E0B9DEB9606C29
:1014700020F4885040F0020060642068806820F00A
:101480004050216888602068806840F08050216862
:1014900088608D4800688D49B0FBF1F000EB80005A
:1014A0004000019003E005E00198401E0190019882
:1014B0000028F9D12068806800F0805030B12068A1
:1014C000806800F00050B0F1005F0AD1606C20F03D
:1014D000020040F010006064A06C40F00100A064C5
:1014E0000126606C00F0100000287AD1002EFCD19B
:1014F00020688068C0F380000028F6D1606C20F47A
:10150000807040F0020060642068B0F1A04F03D00A
:101510006F492068884201D16E4800E06E48074656
:101520002068B0F1A04F02D16948029017E06849E5
:101530002068884203D14FF0A04002900FE0674935
:101540002068884202D16648029008E06449206819
:10155000884202D16148029001E000200290206898
:10156000806800F00300012806D12068006800F0C0
:10157000010008B1012000E00020B0B9029870B16C
:101580000298806800F00300012806D102980068E4
:1015900000F0010008B1012000E0002028B9B8687F
:1015A00020F4403061680843B860A06B012802D085
:1015B0004FF4805100E00021E06941EA4030E168E9
:1015C0000843A16808430543606A012814D1E06913
:1015D00040B9208D401E4FF4803141EA4040054320
:1015E0000AE068E0606C20F0020040F020006064D7
:1015F000A06C40F00100A064E06A012822D03749C5
:101600002068884203D036492068884216D1E06AB3
:10161000B0F5307F02D14FF4E07010E0E06AB0F531
:10162000807F02D14FF4307009E0E06AB0F5E07FCE
:1016300002D14FF4807002E0E06A00E0E06A216BC2
:10164000084305432068806800F00C0008B10120C1
:1016500000E0002060B92068C06844F202018843BD
:101660002168C860A0698103606B41EA40000543BE
:101670002068C0681B49084028432168C860206969
:10168000012809D12068006B20F00F00216A491E53
:1016900008432168086305E02068006B20F00F0014
:1016A000216808630020A064606C20F0020040F014
:1016B0000100606406E0606C20F0020040F0100061
:1016C000606401263046ACE6B000002040420F00C6
:1016D00000010050000300500007005000040050BB
:1016E0000005005007C0F0FF10B586B00446206822
:1016F000B0F1A04F3FD160480068401C5E490860CF
:101700000846006801280DD100BF5C48406940F0E0
:1017100080505A4948610846406900F08050009066
:1017200000BF00BF0F200190032002900020039013
:1017300001A94FF0904001F001FA51485149086069
:101740000020486000214F4881608021C16049002D
:10175000016189004161202181610902C16101F0BB
:101760008EF818B17F2148A003F00CFD00BF45485A
:10177000E06344627DE04B49206888423FD13E48A7
:101780000068401C3C4908600846006801280DD1EB
:1017900000BF3A48406940F08050384948610846E7
:1017A000406900F08050009000BF00BFC020019051
:1017B000032002900020039001A94FF0904001F017
:1017C000BDF9394839490860002048600021374890
:1017D00081608021C160490001618900416120214F
:1017E00081610902C16101F04AF818B1A82126A05F
:1017F00003F0C8FC00BF2D48E063446239E02C4987
:101800002068884235D100BF1C48406940F0005034
:101810001A4948610846406900F00050009000BF36
:1018200000BF0320019002900020039001A92148ED
:1018300001F084F91C4850301F49086000204860BE
:1018400000211D4881608021C1604900016189003B
:101850004161202181610902C16101F010F818B1D4
:10186000CE2109A003F08EFC00BF1348E063446260
:1018700000BF06B010BD0000A00000200010024014
:1018800008000240100300202E2E2F5372632F7386
:10189000746D3332663378785F68616C5F6D737036
:1018A0002E63000000010050080402405403002091
:1018B0000004005000040048980300202DE9F04186
:1018C00004460D461646002720688068C0F3800055
:1018D00000287DD100BF94F84000012802D10220E9
:1018E000BDE8F081012084F8400000BF2068B0F11D
:1018F000A04F03D057492068884204D15648006859
:1019000000F01F0003E05548006800F01F000028A9
:101910007DD12046FEF732FD0746002F78D1606C5E
:1019200040F60161884340F4807060642068B0F143
:10193000A04F03D047492068884204D14648006838
:1019400000F01F0003E04548006800F01F0040B1B0
:101950002068B0F1A04F04D03F49F8312068884298
:101960000FD1606C20F4801060642068C06800F0C3
:10197000007018B3606C20F4005040F48050606434
:101980001CE0606C40F4801060642068B0F1A04FEF
:1019900003D030492068884205D14FF0A040C0688C
:1019A00000F0007003E02E48006800F0007028B1DD
:1019B000606C20F4005040F480506064606C00F46F
:1019C0008050B0F5805F06D1A06C20F0060000E0EA
:1019D0003DE0A06401E00020A06400BF002084F886
:1019E000400000BF1F48E16B88621F48E16BC8627E
:1019F0001E48E16B08631C2021680860206840686D
:101A000040F01000216848602068C06801E018E0DC
:101A100012E040F001002168C860226802F1400134
:101A200033462A46E06B00F059FF2068806840F09A
:101A30000400216888600BE000BF002084F84000AB
:101A400006E0012700BF002084F8400000E00227E4
:101A5000384645E7000100500803005008070050D1
:101A60000C04005069020008D5020008B702000803
:101A700030B5024600230C7D012000FA04F3106803
:101A8000D0F8000240F001001468C4F800021068A9
:101A9000D0F81C0298431468C4F81C02C869E8B95D
:101AA0001068D0F80C0298431468C4F80C028888B7
:101AB00080B28C8940EA0444106800F510704D69CA
:101AC00040F83540088880B20C8940EA0444106828
:101AD00000F510704D6900EBC5004460C86901282D
:101AE0001DD11068D0F80C0218431468C4F80C0219
:101AF000888880B20C8840EA0444106800F51070B1
:101B00004D6940F83540888980B20C8940EA044428
:101B1000106800F510704D6900EBC50044608869DD
:101B200038B91068D0F8040298431468C4F8040265
:101B300006E01068D0F8040218431468C4F80402E0
:101B4000086938B91068D0F8140298431468C4F8CA
:101B5000140206E01068D0F8140218431468C4F8A0
:101B60001402086A012806D11068D0F81C02184334
:101B70001468C4F81C021068D0F8000220F00100BC
:101B80001468C4F80002002030BD704770B50446E8
:101B900000252068C06800F01000102809D12068D6
:101BA0004069C0F3C00020B145F4007510202168E1
:101BB000C8602068006900F01000102809D1206872
:101BC0004069C0F3801020B145F480651020216881
:101BD00008612068406900F0010088B320688068CF
:101BE0007449084088420BD02068806872490840D8
:101BF000884205D0206880687049084088421FD11B
:101C00002068806800F0020002280DD020688068FB
:101C100000F40070B0F5007F06D02068806800F402
:101C20000030B0F5003F03D12046FEF727FD01E06C
:101C300045F4006520688068614908432168886030
:101C400020684069C0F3400040B12068C06800F0DF
:101C5000030018B100212046FEF71AFC20684069F5
:101C6000C0F3001040B12068006900F0030018B113
:101C700001212046FEF70CFC206C284320642068DC
:101C8000806900F0010068B120684069C0F300205D
:101C900040B120684069C0F3C03018B1206C40F0FA
:101CA000010020642068806900F0020002280DD144
:101CB00020684069C0F3402040B120684069C0F30B
:101CC000C03018B1206C40F00200206420688069A8
:101CD00000F0040004280DD120684069C0F3802082
:101CE00040B120684069C0F3C03018B1206C40F0AA
:101CF000040020642068806900F0700080B32068D0
:101D00004069C0F3C02058B320684069C0F3C030B8
:101D100030B32068806900F0700040281BD006DCDA
:101D2000102809D020280CD0302824D10EE05028CB
:101D300017D060281FD119E0206C40F00800206403
:101D40001AE0206C40F01000206415E0206C40F098
:101D50002000206410E0206C40F0400020640BE084
:101D600011E0206C40F08000206405E0206C40F41D
:101D70008070206400E000BF00BF2068806920F010
:101D8000700021688861206C90B12068406840F044
:101D9000040021684860012084F83D002068406903
:101DA00048F65B718843216848612046FFF7EDFEE5
:101DB00070BD0000010000040001000800000110D7
:101DC0001905010070B50446002600250CB9012054
:101DD00070BD94F83D0028B9002084F83C002046EE
:101DE00000F0CEF8022084F83D002068006820F062
:101DF0000200216808602068006840F00100216846
:101E0000086000F093FF05460EE000F08FFF401BD6
:101E10000A2809D9032084F83D0000BF002084F877
:101E20003C0000BF0320D3E72068406800F00100B9
:101E30000028EAD02068406800F00100002875D032
:101E4000A069012806D12068006840F08000216860
:101E5000086005E02068006820F0800021680860C4
:101E6000E069012806D12068006840F04000216840
:101E7000086005E02068006820F0400021680860E4
:101E8000206A012806D12068006840F020002168FF
:101E9000086005E02068006820F0200021680860E4
:101EA000606A012806D12068006840F010002168AF
:101EB000086005E02068006820F0100021680860D4
:101EC000A06A012806D12068006840F00800216857
:101ED000086005E02068006820F0080021680860BC
:101EE000E06A012806D12068006840F004002168FB
:101EF000086005E02068006820F0040021680860A0
:101F0000D4E9020108432169084361690843616813
:101F1000491E08432168C8612068006820F001005C
:101F20002168086000F002FF05460FE01AE000F0AB
:101F3000FDFE401B0A2809D9032084F83D0000BF9C
:101F4000002084F83C0000BF032041E7206840687F
:101F500000F001000028EAD12068406800F001008C
:101F600000B90126012E06D100202064012084F84A
:101F70003D0000202CE7042084F83D00012027E7E5
:101F800010B586B004461D492068884234D100BF90
:101F90001B48C06940F000701949C8610846C06913
:101FA00000F00070009000BF00BF4FF4407001903F
:101FB0000220029000200390032004900920059045
:101FC00001A9104800F0BAFD00221146142000F0CB
:101FD0004EFF142000F03EFF00220521152000F0E6
:101FE00046FF152000F036FF00220521162000F0E4
:101FF0003EFF162000F02EFF06B010BD006400402A
:1020000000100240000400482DE9F04104460D464E
:1020100017464FF00008002600BF94F83C00012846
:1020200002D10220BDE8F081012084F83C0000BF0D
:10203000B5B994F83D0022280BD094F83D00422811
:1020400007D094F83D00622803D094F83D00722830
:1020500006D100BF002084F83C0000BF0220E1E769
:10206000012D16D194F83D0032280BD094F83D0094
:10207000522807D094F83D00622803D094F83D0020
:10208000722806D100BF002084F83C0000BF022067
:10209000C8E7CDB994F83D00122804D0322806D004
:1020A00052280CD107E0422084F83D000BE062206A
:1020B00084F83D0007E0722084F83D0003E0222010
:1020C00084F83D0000BF19E094F83D00122804D0C8
:1020D000222806D042280CD107E0522084F83D0087
:1020E0000BE0622084F83D0007E0722084F83D0098
:1020F00003E0322084F83D0000BF00BF00F016FE70
:10210000804612E0781C80B12FB100F00FFEA0EBEA
:102110000800B84209D9032084F83D0000BF002020
:1021200084F83C0000BF03207CE725B92068C06824
:1021300000F0030003E02068006900F003000028BD
:10214000E0D00DB9666B00E0A66B206800F5D87092
:1021500000EB0510006800F00400B060B06840B902
:10216000206800F5D87000EB05100068400D306065
:1021700007E0206800F5D87000EB05100068C00883
:102180007060206800F5D87000EB0510006800F062
:1021900002004008F060206800F5D87000EB0510E0
:1021A000406800F00F003061206800F5D87000EB47
:1021B0000510406800F47F40000AF0613562206835
:1021C00000F5D87000EB051080683075206800F5C8
:1021D000D87000EB0510806800F47F40010A71752B
:1021E000206800F5D87000EB0510806800F47F00CF
:1021F000010CB175206800F5D87000EB05108068FF
:10220000010EF175206800F5D87000EB0510C0686C
:102210003076206800F5D87000EB0510C06800F437
:102220007F40010A7176206800F5D87000EB051038
:10223000C06800F47F00010CB176206800F5D8700A
:1022400000EB0510C068010EF17635B92068C06852
:1022500040F020002168C86005E02068006940F077
:10226000200021680861CDB994F83D00422804D0CF
:10227000622806D072280CD107E0122084F83D00B5
:102280000BE0322084F83D0007E0522084F83D0046
:1022900003E0012084F83D0000BF19E094F83D0000
:1022A000522804D0622806D072280CD107E01220F0
:1022B00084F83D000BE0222084F83D0007E0422036
:1022C00084F83D0003E0012084F83D0000BF00BF1A
:1022D00000BF002084F83C0000BF00BFA2E6024619
:1022E00000BF92F83C00012801D102207047012074
:1022F00082F83C0000BFB1B992F83D0022280BD013
:1023000092F83D00422807D092F83D00622803D0A1
:1023100092F83D00722806D100BF002082F83C00F0
:1023200000BF0220E2E7012916D192F83D003228D1
:102330000BD092F83D00522807D092F83D00622859
:1023400003D092F83D00722806D100BF002082F829
:102350003C0000BF0220C9E7C9B992F83D0012282D
:1023600004D0322806D052280CD107E0422082F84F
:102370003D000BE0622082F83D0007E0722082F809
:102380003D0003E0222082F83D0000BF19E092F8F2
:102390003D00122804D0222806D042280CD107E0A4
:1023A000522082F83D000BE0622082F83D0007E0F9
:1023B000722082F83D0003E0322082F83D0000BF29
:1023C00000BF002010641068406940F40F4013689B
:1023D000586100BF002082F83C0000BF31B910688E
:1023E000406940F00A001368586105E010684069D0
:1023F00040F0500013685861002077E770470000F4
:102400002DE9F04104460E46042500272068806827
:1024100000F08060B0F1806F0DD02068806800F01F
:102420000060B0F1006F06D02068806800F0805036
:10243000B0F1805F7DD100BF94F83C00012802D14B
:102440000220BDE8F081012084F83C0000BF94F830
:102450003D00222804D0322806D062280CD107E0A3
:10246000422084F83D000BE0522084F83D0007E054
:10247000722084F83D0003E0122084F83D0000BF84
:1024800000BF2068806800F08060B0F1806F01D1EB
:10249000002509E02068806800F00060B0F1006F5E
:1024A00001D1012500E00225206800F5C07000EB95
:1024B0000510006800F00101206800F5C07000EB15
:1024C00005100160206B806898B9206800F5C07025
:1024D00000EB05100068216BC968226B128841EA85
:1024E00042510843216801F5C07101EB05110860F4
:1024F00015E0206800F5C07000EB05100068216B46
:102500008968226B526841EAC201226BD26811438A
:102510000843216801F5C07101EB05110860206BCB
:10252000007C00F00F00216B0861206800F5C0708E
:1025300000E0BEE000EB0510406820F00F012068CD
:1025400000F5C07000EB05104160206800F5C07018
:1025500000EB05104168206B00690143206800F51D
:10256000C07000EB05104160206BC07D0106206B40
:10257000807D41EA0041206B407D41EA0021206BD3
:10258000007D0143206800F5C07000EB05108160FC
:10259000206BC07E0106206B807E41EA0041206BEB
:1025A000407E41EA0020216B097E0843216801F545
:1025B000C07101EB0511C860206800F5C07000EB28
:1025C0000510006840F00101206800F5C07000EBC4
:1025D0000510016000F0AAFB074628E0701C30B32C
:1025E00026B100F0A3FBC01BB04220D9032084F821
:1025F0003D0035B92068806840F08000216888601F
:102600000EE0012D06D12068806840F4004021686A
:10261000886005E02068806840F4000021688860D8
:1026200000BF002084F83C0000BF032009E74DB93B
:102630002068806821490840884201D1012016E0C5
:10264000002014E0012D09D1206880681C49084051
:10265000884201D101200AE0002008E0206880685B
:1026600018490840884201D1012000E000200028DC
:10267000B4D094F83D00422804D0522806D07228E5
:102680000CD107E0222084F83D000BE0322084F8D2
:102690003D0007E0622084F83D0003E0012084F85B
:1026A0003D0000BF00BF00BF002084F83C0000BF19
:1026B000C7E6042084F83D000120C2E601000004C2
:1026C0000001000800000110704770B503460024A7
:1026D000002500BF5879012801D1022070BD0120DA
:1026E000587100BF022018711868046840F6FE7027
:1026F00090408443D1E9000640EA060505FA02F05D
:1027000004431868046018680668C0209040864337
:10271000186806600120187100BF0020587100BFC2
:1027200000BFDBE710B504460CB9012010BD2079CD
:1027300020B900206071204600F008F802202071C6
:1027400000202061012020710020EFE710B586B045
:1027500004460F492068884218D100BF0D48C0695F
:1027600040F000500B49C8610846C06900F00050B5
:10277000009000BF00BF10200190032002900020B5
:10278000039001A94FF0904000F0D8F906B010BDB9
:10279000007400400010024070B50446E06B05680C
:1027A0002068066894F84010042088402840D0B182
:1027B00006F00400B8B12068006800F0200028B9D5
:1027C0002068006820F004002168086094F8401038
:1027D00004208840E16B4860E06A00284ED0204623
:1027E000E16A88474AE094F8401002208840284077
:1027F00008B306F00200F0B12068006800F0200085
:1028000040B92068006820F00A00216808600120B3
:1028100084F8210094F8401002208840E16B486061
:1028200000BF002084F8200000BFA06A30B320461B
:10283000A16A884722E094F8401008208840284088
:10284000E0B106F00800C8B12068006820F00E0072
:102850002168086094F8401001208840E16B4860CE
:102860000120A06384F8210000BF002084F820002C
:1028700000BF206B10B12046216B884770BD70B53A
:10288000044600250CB9012070BD022084F8210007
:102890002068056843F6F0708543D4E901010843D8
:1028A000E16808432169084361690843A169084355
:1028B000E16908430543206805602046FEF732F8C9
:1028C0000020A062E06220636063A063012084F8BE
:1028D0002100002084F8200000BFD5E72DE9F04159
:1028E00004460D4616461F464FF0000800BF94F8F8
:1028F0002000012802D10220BDE8F081012084F8E7
:10290000200000BF94F8210001282CD1022084F877
:1029100021000020A0632068006820F001002168E9
:1029200008603B46324629462046FEF71BF8E06A1F
:1029300030B12068006840F00E00216808600BE0AC
:102940002068006840F00A0021680860206800687C
:1029500020F00400216808602068006840F0010051
:102960002168086006E000BF002084F8200000BF56
:102970004FF002084046BFE72DE9F04104460E46FD
:102980000127002500BF2648007E012802D1022031
:10299000BDE8F08101202249087600BF20680128A7
:1029A00012D14CF25030FEF7ADF988BBFEF74EF96C
:1029B0004CF25030FEF7A6F907461A48006920F09D
:1029C00004001849086123E04CF25030FEF79AF9F0
:1029D000F0B94FF0FF303060656812E02846FEF72E
:1029E00049F94CF25030FEF78DF907460D48006961
:1029F00020F002000B4908610FB1356007E005F5D2
:102A00000065D4E9011001EBC020A842E6D800BF60
:102A100000BF00200249087600BF3846B8E7000032
:102A200058050020002002400348006940F0800063
:102A30000149086100207047002002402DE9FE4F47
:102A400005468B4617469846012600240020029032
:102A500000BF2448007E012802D10220BDE8FE8F7D
:102A600001202049087600BF4CF25030FEF74AF9A9
:102A7000064686BB012D02D10120029006E0022D00
:102A800002D10220029001E00420029000241EE006
:102A90002201B946C24648465146FDF791FB80B235
:102AA0000190022000FB04B000900199FEF7F6F8B7
:102AB0004CF25030FEF726F906460B48006920F02C
:102AC00001000949086106B104E0601CC4B2029823
:102AD0008442DDDB00BF00BF00200249087600BF52
:102AE0003046BBE75805002000200240002008497E
:102AF000096901F0800151B10649054A5160064952
:102B000051601146096901F0800101B1012070474F
:102B10000020024023016745AB89EFCD70470000DC
:102B200010B5044604480068204020B10248046003
:102B30002046FFF7F3FF10BD1404014078B50346AB
:102B4000002200240020CBE0012696400D6805EA13
:102B50000604002C72D04D68022D02D04D68122D53
:102B600013D1D60803F1200555F826005507EE0EBF
:102B70000F25B540A8435607F60E0D69B54028430A
:102B8000D60803F1200545F82600186856000325ED
:102B9000B540A8430D7905F003055600B54028431C
:102BA00018604D68012D08D04D68022D05D04D6884
:102BB000112D02D04D68122D13D1986856000325AF
:102BC000B540A8435600CD68B54028439860586882
:102BD00001259540A8430D79C5F30015954028437C
:102BE0005860D86856000325B540A84356008D6844
:102BF000B5402843D8604D6805F08055B5F1805F39
:102C00006DD100BF394DAD6945F00105374EB56155
:102C10003546AD6905F00105009500BF00BF4FEADC
:102C2000B635960855F8260095072E0F0F25B540A6
:102C3000A843B3F1904F02D1002515E04FE02C4D91
:102C4000AB4201D101250FE02A4DAB4201D1022553
:102C50000AE0294DAB4201D1032505E0274DAB42E7
:102C600001D1042500E005259607360FB54028431D
:102C7000234D960845F82600224D2868A0434D684C
:102C800005F48035B5F5803F00D120431D4D286007
:102C90002D1D2868A0434D6805F40035B5F5003FAB
:102CA00000D12043174D2D1D28602D1D2868A043FD
:102CB0004D6805F48015B5F5801F00D12043114DF6
:102CC000083528602D1D2868A0434D6805F40015BF
:102CD000B5F5001F00D120430A4D0C352860521C69
:102CE0000D68D540002D7FF42FAF78BD0010024055
:102CF0000004004800080048000C0048001000488C
:102D00000800014000040140024613690B400BB16A
:102D1000012000E00020704742694A40426170474C
:102D20000AB1816100E081627047000001480068DB
:102D300070470000A4000020034800680349097898
:102D40000844014908607047A4000020AC0000203E
:102D500010B50848006840F01000064908600320DC
:102D600000F0C4F8002000F007F800F02BF8002075
:102D700010BD00000020024070B504460E480078E7
:102D80004FF47A71B1FBF0F00C490968B1FBF0F532
:102D9000284601F00CF908B1012070BD102C07D2B3
:102DA00000222146501E00F062F80548046001E050
:102DB0000120F2E70020F0E7AC000020B000002086
:102DC000A800002008B500BF2148806940F001003C
:102DD0001F4988610846806900F00100009000BF2B
:102DE00000BF00BF0846C06940F08050C861084677
:102DF000C06900F08050009000BF00BF032000F0C9
:102E000075F8002211466FF00B0000F030F8002238
:102E100011466FF00A0000F02AF8002211466FF008
:102E2000090000F024F800221146501F00F01FF89E
:102E300000221146101F00F01AF800221146901EC1
:102E400000F015F800221146501E00F010F808BDE1
:102E50000010024000BF00F01F0201219140420912
:102E6000920002F1E022C2F8001100BF70472DE984
:102E7000F05F80460D461646002701F085FE0746A6
:102E800039462A46334601F00700C0F1070ABAF175
:102E9000040F02D94FF0040A01E0C0F1070AD1463D
:102EA00000F1040ABAF1070F02D24FF0000A01E064
:102EB000A0F1030AD4464FF0010A0AFA09FAAAF16E
:102EC000010A0AEA020A0AFA0CFA4FF0010B0BFA9D
:102ED0000CFBABF1010B0BEA030B4AEA0B04214696
:102EE000404601F059FEBDE8F09F000000BF00F031
:102EF0000702064B19684FF6FF031940044B0B43BA
:102F000043EA0221014B196000BF70470CED00E05D
:102F10000000FA05F8B5044600260025206800F4F4
:102F20008030B0F5803F75D10027B148C06900F00E
:102F3000805070B900BFAE48C06940F08050AC49C5
:102F4000C8610846C06900F08050009000BF00BF13
:102F50000127A848006800F48070B0B9A54800684F
:102F600040F48070A3490860FFF7E0FE064606E0E3
:102F7000FFF7DCFE801B642801D90320F8BD9D48C3
:102F8000006800F480700028F2D09948006A00F4CC
:102F90004075002D6CD0A08800F44070A84267D026
:102FA0009348006A20F440750120010491FAA1F1D0
:102FB000B1FA81F1904A02EB8101C1F800040020CE
:102FC0004FF4803191FAA1F1B1FA81F102EB810164
:102FD000C1F800048648056205F00100B8B3FFF7A8
:102FE000A5FE064608E0FFF7A1FE801B41F28831EE
:102FF000884201D90320C1E74020022191FAA1F1C2
:10300000B1FA81F108430121B1EB601F03D1784887
:1030100000681FE03CE04020022191FAA1F1B1FAE2
:1030200081F108430221B1EB601F02D17048006AB0
:1030300010E04020022191FAA1F1B1FA81F1084398
:103040000421B1EB601F03D16948406802E00FE042
:103050006748406A4021022292FAA2F2B2FA82F252
:10306000114301F01F020121914008400028BAD00D
:103070005F48006A20F44070616808435C49086258
:10308000012F04D10846C06920F08050C86100BFFC
:10309000207800F0010038B15548006B20F00300A3
:1030A000A168084352490863207800F00200022812
:1030B00007D14F48006B20F44030E16808434C4989
:1030C0000863207800F00400042807D14848006B0A
:1030D00020F440202169084345490863207800F026
:1030E0002000202807D14248006B20F01000E16941
:1030F00008433F490863206800F40030B0F5003F02
:1031000007D13B48406820F48000A16B0843384950
:103110004860207800F04000402807D13448006B18
:1031200020F02000216A084331490863207800F02C
:103130000800082807D12E48006B20F44010616970
:1031400008432B490863207800F01000102807D1AD
:103150002748006B20F44000A16908432449086314
:10316000208800F40070B0F5007F07D12048406847
:1031700020F40000E16A08431D494860207800F00F
:103180008000802807D11A48C06A20F4F870616A6C
:1031900008431749C862208800F48070B0F5807F2A
:1031A00007D11348C06A20F47850A16A0843104937
:1031B000C862208800F48050B0F5805F07D10C48C9
:1031C000006B20F48070216B084309490863208854
:1031D00000F40050B0F5005F07D10548006B20F403
:1031E0000070616B0843024908630020C6E60000D6
:1031F00000100240007000400000424270B50446DA
:103200000D460026B448006800F00700A8420ED220
:10321000B148006820F007002843AF49086008461D
:10322000006800F00700A84201D0012070BD20789E
:1032300000F00200022807D1A848406820F0F00002
:10324000A1680843A5494860207800F001000028E3
:103250007CD0606801283BD12020010391FAA1F1C4
:10326000B1FA81F108430121B1EB601F02D19B4803
:1032700000681DE02020010391FAA1F1B1FA81F16B
:1032800008430221B1EB601F02D19448006A0FE0AD
:103290002020010391FAA1F1B1FA81F10843042140
:1032A000B1EB601F02D18D48406801E08B48406A55
:1032B00020210A0392FAA2F2B2FA82F2114301F03B
:1032C0001F0201219140084000287CD10120ADE778
:1032D000606802283BD12020010591FAA1F1B1FAE2
:1032E00081F108430121B1EB601F02D17B480068E6
:1032F0001DE02020010591FAA1F1B1FA81F1084306
:103300000221B1EB601F02D17448006A0FE0202057
:10331000010591FAA1F1B1FA81F108430421B1EB61
:10332000601F02D16D48406801E06C48406A20216E
:103330000A0592FAA2F2B2FA82F2114301F01F02D8
:10334000012191400840E8BB01206FE77EE020208A
:10335000022191FAA1F1B1FA81F108430121B1EB07
:10336000601F02D15D4800681DE02020022191FA13
:10337000A1F1B1FA81F108430221B1EB601F02D142
:103380005648006A0FE02020022191FAA1F1B1FA1B
:1033900081F108430421B1EB601F02D14F4840681E
:1033A00001E04E48406A2021022292FAA2F2B2FACB
:1033B00082F2114301F01F0201219140084008B937
:1033C000012033E7FFE74548406820F003006168CB
:1033D000084342494860FFF7A9FC06466068012897
:1033E00010D108E0FFF7A2FC801B41F2883188422F
:1033F00001D903201AE73948406800F00C0004287E
:10340000F0D123E06068022810D108E0FFF78EFCBD
:10341000801B41F28831884201D9032006E72F48FA
:10342000406800F00C000828F0D10FE008E0FFF73A
:103430007DFC801B41F28831884201D90320F5E6EA
:103440002648406800F00C000028F0D122480068AF
:1034500000F00700A8420ED91F48006820F00700BE
:1034600028431D4908600846006800F00700A8428C
:1034700001D00120DAE6207800F00400042807D10A
:103480001648406820F4E060E1680843134948604A
:10349000207800F00800082808D11048406820F47F
:1034A0006050216940EAC1000C49486000F022F8F0
:1034B0000A49496801F0F001F02292FAA2F2B2FA48
:1034C00082F2D140064A515CC8400649086000209B
:1034D000FFF752FC0020A9E6002002400010024045
:1034E000F4580008B0000020014800687047000050
:1034F000B000002070B5002100240022002300202D
:103500001A4D696801F00C0565B3042D02D0082D31
:1035100027D101E0164827E001F470154FF470162A
:1035200096FAA6F6B6FA86F6F540124E735D0F4D82
:10353000ED6A05F00F050F2696FAA6F6B6FA86F69E
:10354000F5400D4E745D01F480352DB1084DB5FB8D
:10355000F4F505FB03F202E0084D03FB05F210460B
:1035600002E000BF064800BF00BF70BD001002406F
:10357000001BB700D4580008E458000800093D00BB
:1035800000127A00F8B504460025207800F001000A
:1035900000287BD0FA48406800F00C0004280CD0CA
:1035A000F748406800F00C00082845D1F44840680E
:1035B00000F48030B0F5803F3ED12020010391FA25
:1035C000A1F1B1FA81F108430121B1EB601F02D1F1
:1035D000EB4800681DE02020010391FAA1F1B1FA47
:1035E00081F108430221B1EB601F02D1E448006A77
:1035F0000FE02020010391FAA1F1B1FA81F1084313
:103600000421B1EB601F02D1DD48406801E0DC48D5
:10361000406A20210A0392FAA2F2B2FA82F211431E
:1036200001F01F020121914008400028B1D06068DC
:1036300000282BD10120F8BD00BF6068B0F5803FA5
:1036400006D1CF48006840F48030CD49086029E0B9
:10365000606858B9CA48006820F48030C8490860DA
:103660000846006820F4802008601BE06068B0F520
:10367000A02F0CD1C248006840F48020C0490860E7
:103680000846006840F4803008600BE0A1E0BC48C8
:10369000006820F48030BA4908600846006820F4C9
:1036A0008020086000BFB648C06A20F00F00A16803
:1036B0000843B349C8626068A0B3FFF737FB05460B
:1036C00006E0FFF733FB401B642801D90320B2E773
:1036D0002020010391FAA1F1B1FA81F108430121FF
:1036E000B1EB601F02D1A64800681EE02020010354
:1036F00091FAA1F1B1FA81F108430221B1EB601F07
:1037000002D19F48006A10E02020010391FAA1F144
:10371000B1FA81F108430421B1EB601F03D198484D
:10372000406802E010E09648406A20210A0392FABD
:10373000A2F2B2FA82F2114301F01F02012191407C
:1037400008400028BDD044E0FFF7F0FA054606E047
:10375000FFF7ECFA401B642801D903206BE7202017
:10376000010391FAA1F1B1FA81F108430121B1EB12
:10377000601F02D1824800681DE02020010391FAF9
:10378000A1F1B1FA81F108430221B1EB601F02D12E
:103790007B48006A0FE02020010391FAA1F1B1FA01
:1037A00081F108430421B1EB601F02D174484068E5
:1037B00001E07348406A20210A0392FAA2F2B2FAA9
:1037C00082F2114301F01F020121914008400028BC
:1037D000BED1207800F0020002285CD16848406821
:1037E00000F00C0050B16648406800F00C0008285A
:1037F00052D16348406800F48030E8BB20200221A9
:1038000091FAA1F1B1FA81F108430121B1EB601FF6
:1038100002D15B4800681DE02020022191FAA1F14D
:10382000B1FA81F108430221B1EB601F02D1544883
:10383000006A0FE02020022191FAA1F1B1FA81F192
:1038400008430421B1EB601F02D14D48406801E0FC
:103850004B48406A2021022292FAA2F2B2FA82F286
:10386000114301F01F0201219140084028B1206955
:10387000012802D00120DEE60EE04148006820F079
:10388000F800F82292FAA2F2B2FA82F2616991404B
:1038900008433B490860B1E0206970B3012191FA07
:1038A000A1F0B0FA80F0374A42F82010FFF73EFA54
:1038B000054606E0FFF73AFA401B022801D903202B
:1038C000B9E62020022191FAA1F1B1FA81F1084371
:1038D0000121B1EB601F02D1294800681EE02020C1
:1038E000022191FAA1F1B1FA81F108430221B1EB71
:1038F000601F03D12248006A10E02CE02020022142
:1039000091FAA1F1B1FA81F108430421B1EB601FF2
:1039100002D11B48406801E01948406A2021022278
:1039200092FAA2F2B2FA82F2114301F01F020121CF
:10393000914008400028BDD01148006820F0F800F0
:10394000F82292FAA2F2B2FA82F261699140084337
:103950000B49086052E00020012191FAA1F1B1FA6F
:1039600081F1084A42F82100FFF7E0F905460BE033
:10397000FFF7DCF9401B022806D903205BE60000B4
:1039800000100240000042422020022191FAA1F1E1
:10399000B1FA81F108430121B1EB601F02D1FB486C
:1039A00000681DE02020022191FAA1F1B1FA81F115
:1039B00008430221B1EB601F02D1F448006A0FE016
:1039C0002020022191FAA1F1B1FA81F108430421EA
:1039D000B1EB601F02D1ED48406801E0EB48406A5E
:1039E0002021022292FAA2F2B2FA82F2114301F0ED
:1039F0001F020121914008400028B9D1207800F031
:103A00000800082851D1A06980B3012090FAA0F1E4
:103A1000B1FA81F1DE4A02EB8101C1F88004FFF7BF
:103A200085F9054606E0FFF781F9401B022801D918
:103A3000032000E66020022191FAA1F1B1FA81F1A0
:103A400008430121B1EB601F02D1D04800681EE09D
:103A50006020022191FAA1F1B1FA81F1084302211B
:103A6000B1EB601F03D1C948006A10E01EE060207E
:103A7000022191FAA1F1B1FA81F108430421B1EBDD
:103A8000601F02D1C148406801E0C048406A60211F
:103A9000022292FAA2F2B2FA82F2114301F01F025C
:103AA0000121914008400028BDD04FE000200121B5
:103AB00091FAA1F1B1FA81F1B54A02EB8101C1F8A5
:103AC0008004FFF733F9054606E0FFF72FF9401BA6
:103AD000022801D90320AEE56020022191FAA1F16C
:103AE000B1FA81F108430121B1EB601F02D1A7486F
:103AF00000681DE06020022191FAA1F1B1FA81F184
:103B000008430221B1EB601F02D1A048006A0FE018
:103B10006020022191FAA1F1B1FA81F10843042158
:103B2000B1EB601F02D19948406801E09748406AB4
:103B30006021022292FAA2F2B2FA82F2114301F05B
:103B40001F020121914008400028BED1207800F0DA
:103B50000400042873D100268C48C06900F080500E
:103B600070B900BF8948C06940F080508749C8617A
:103B70000846C06900F08050009000BF00BF0126D9
:103B80008448006800F48070B0B98248006840F44E
:103B9000807080490860FFF7C9F8054606E0FFF726
:103BA000C5F8401B642801D9032044E57948006822
:103BB00000F480700028F2D000BFE068012806D130
:103BC0007248006A40F001007049086227E0E0682E
:103BD00058B96E48006A20F001006C490862084636
:103BE000006A20F00400086219E0E06805280BD1A3
:103BF0006648006A40F00400644908620846006AAA
:103C000040F0010008620AE06048006A20F001000C
:103C10005E4908620846006A20F00400086200BF9E
:103C2000E068B8B3FFF782F8054609E0FFF77EF8D1
:103C3000401B41F28831884202D90320FBE48BE02B
:103C40004020022191FAA1F1B1FA81F1084301214A
:103C5000B1EB601F02D14D4800681EE040200221F8
:103C600091FAA1F1B1FA81F108430221B1EB601F91
:103C700002D14648006A10E04020022191FAA1F1E9
:103C8000B1FA81F108430421B1EB601F03D13F4831
:103C9000406802E010E03D48406A4021022292FA6A
:103CA000A2F2B2FA82F2114301F01F020121914007
:103CB00008400028BAD046E0FFF738F8054608E08B
:103CC000FFF734F8401B41F28831884201D90320C4
:103CD000B1E44020022191FAA1F1B1FA81F1084347
:103CE0000121B1EB601F02D1284800681DE040208F
:103CF000022191FAA1F1B1FA81F108430221B1EB5D
:103D0000601F02D12148006A0FE04020022191FA91
:103D1000A1F1B1FA81F108430421B1EB601F02D196
:103D20001A48406801E01948406A4021022292FA8C
:103D3000A2F2B2FA82F2114301F01F020121914076
:103D400008400028BCD1012E05D11048C06920F0E0
:103D500080500E49C86100BFE069002874D00B484C
:103D6000406800F00C0008286FD0E06902286DD18F
:103D700000204FF0807191FAA1F1B1FA81F1044A6B
:103D800042F82100FEF7D2FF05460CE00010024089
:103D90000000424200700040FEF7C8FF401B0228AE
:103DA00001D9032047E42020010591FAA1F1B1FADD
:103DB00081F108430121B1EB601F02D16F48006817
:103DC0001DE02020010591FAA1F1B1FA81F108432B
:103DD0000221B1EB601F02D16848006A0FE0202089
:103DE000010591FAA1F1B1FA81F108430421B1EB87
:103DF000601F02D16148406801E06048406A2021AC
:103E00000A0592FAA2F2B2FA82F2114301F01F02FD
:103E10000121914008400028BED1D4E90810084390
:103E20005649496821F474110843544948600121F6
:103E3000080690FAA0F0B0FA80F0514A42F820103B
:103E4000FEF774FF054609E095E092E041E0FEF7D9
:103E50006DFF401B022801D9032038E42020010512
:103E600091FAA1F1B1FA81F108430121B1EB601F90
:103E700002D1424800681DE02020010591FAA1F11D
:103E8000B1FA81F108430221B1EB601F02D13B4836
:103E9000006A0FE02020010591FAA1F1B1FA81F149
:103EA00008430421B1EB601F02D13448406801E0AF
:103EB0003248406A20210A0592FAA2F2B2FA82F24E
:103EC000114301F01F020121914008400028BED09B
:103ED00051E000214FF0807090FAA0F0B0FA80F02D
:103EE000274A42F82010FEF721FF054606E0FEF7BC
:103EF0001DFF401B022801D903202FE420200105CB
:103F000091FAA1F1B1FA81F108430121B1EB601FEF
:103F100002D11A4800681DE02020010591FAA1F1A4
:103F2000B1FA81F108430221B1EB601F02D11348BD
:103F3000006A0FE02020010591FAA1F1B1FA81F1A8
:103F400008430421B1EB601F02D10C48406801E036
:103F50000A48406A20210A0592FAA2F2B2FA82F2D5
:103F6000114301F01F020121914008400028BED1F9
:103F700001E001207FE400207DE400000010024009
:103F800000004242042808D14FF0E021096941F0C5
:103F900004014FF0E022116107E04FF0E0210969D0
:103FA00021F004014FF0E02211617047704770B5B5
:103FB00004462546681EB0F1807F01D301200FE042
:103FC000681E4FF0E02148610F214FF0FF3000F0F4
:103FD000E3FD00204FF0E021886107200861002008
:103FE00070BD10B5FFF7E2FF10BD000030B502460E
:103FF0000B4600BF92F83C00012801D1022030BDE1
:10400000012082F83C0000BF106841681068846895
:104010000F4D1068A84203D00E4D1068A84203D17E
:1040200021F470015868014321F0700118680143C0
:1040300024F080049868044310684160106884602C
:1040400000BF002082F83C0000BF00BFD7E700009F
:10405000002C01400034014010B504460CB9012089
:1040600010BD94F83D0028B9002084F83C0020469B
:1040700000F00CF8022084F83D00211D206800F0BB
:10408000DDFE012084F83D000020E9E710B586B090
:1040900004463449206888421DD100BF32488069F7
:1040A00040F40060304988610846806900F400608F
:1040B000009000BF00BF4FF44070019002200290BA
:1040C0000020039004900620059001A94FF0904035
:1040D000FEF734FD44E02068B0F1804F0DD100BF01
:1040E0002148C06940F001001F49C8610846C06905
:1040F00000F00100009000BF32E01C4920688842B7
:104100001CD100BF1848806940F48030164988618E
:104110000846806900F48030009000BF00BF4FF473
:1041200000400190022002900020039004900120A2
:10413000059001A90E48FEF701FD11E00D49206828
:1041400088420DD100BF0848806940F4003006491C
:1041500088610846806900F40030009000BF00BF0D
:1041600006B010BD002C014000100240004001408C
:1041700000040048004401402DE9F04104460D468A
:10418000002600BF94F83C00012802D10220BDE8BF
:10419000F081012084F83C0000BF022084F83D003B
:1041A000206886684148064026F47F46206886607D
:1041B000286850283CD00CDC202861D004DC002882
:1041C00054D0102866D156E030285ED0402861D106
:1041D00042E0602836D070280ED0B0F5805F03D062
:1041E000B0F5005F56D116E0206880682F49703125
:1041F0000840216888604EE0D5E902136A682068AB
:1042000000F07AFE206886682848064046F0770667
:10421000206886603FE0D5E902136A68206800F0F4
:104220006BFE2068806840F480402168886032E03E
:10423000EA686968206800F0C9FE5021206800F033
:1042400067FE28E0EA686968206800F015FF6021D1
:10425000206800F05DFE1EE0EA686968206800F0F2
:10426000B5FE4021206800F053FE14E000212068D4
:1042700000F04EFE0FE01021206800F049FE0AE039
:104280002021206800F044FE05E03021206800F085
:104290003FFE00E000BF00BF012084F83D0000BFEA
:1042A000002084F83C0000BF00BF70E788FFFEFFDD
:1042B0002DE9F04104460D46164600BF94F83C0037
:1042C000012802D10220BDE8F081012084F83C00E1
:1042D00000BF022084F83D0096B9EB68D5E90012D2
:1042E000206800F089FE2068806920F00C002168B9
:1042F000886120688069A9680843216888613DE079
:10430000042E13D1EB68D5E90012206800F0CAFE34
:104310002068806920F44060216888612068806995
:10432000A96840EA01202168886127E0082E12D19F
:10433000EB68D5E90012206800F0D3FE2068C06960
:1043400020F00C002168C8612068C069A968084392
:104350002168C86112E0EB68D5E90012206800F01E
:10436000DEFE2068C06920F440602168C8612068D2
:10437000C069A96840EA01202168C861012084F869
:104380003D0000BF002084F83C0000BF00BF9AE75A
:1043900010B504460CB9012010BD94F83D0028B9B1
:1043A000002084F83C00204600F00CF8022084F83D
:1043B0003D00211D206800F041FD012084F83D00F2
:1043C0000020E9E7704770B504460D4600BF94F839
:1043D0003C00012801D1022070BD012084F83C007E
:1043E00000BF022084F83D002946204600F09AFDD7
:1043F0002068C06820F040002168C8602068C0685C
:1044000020F480402168C860012084F83D0000BF8E
:10441000002084F83C0000BF00BFDDE700BFFEE7DE
:1044200000B589B04FF0A0404349086000204860C3
:10443000002141488160012101610021C161416287
:1044400001630121C1620021C160062101620021D6
:10445000416304214161002181618163FCF7D8FF40
:1044600020B140F2031135A000F08CFE0020069030
:1044700006A93148FCF7BAFC20B140F20B112FA07D
:1044800000F080FE012000900190002003900520A4
:10449000029000200490059069462748FCF768FDCB
:1044A00020B14FF48C7125A000F06CFE022000902A
:1044B000019069462048FCF75BFD20B140F22111D4
:1044C0001EA000F05FFE03200090019069461A488C
:1044D000FCF74EFD20B14FF4957118A000F052FE8C
:1044E00004200090019069461348FCF741FD20B17B
:1044F00040F2331111A000F045FE1020009005207D
:10450000019069460C48FCF733FD20B14FF49E71D1
:104510000AA000F037FE12200090062001906946A4
:104520000548FCF725FD20B140F2451103A000F03D
:1045300029FE09B000BD0000140200202E2E2F53CA
:1045400072632F6D61696E2E6300000000B587B045
:1045500023482449086000204860002121488160E8
:10456000012101610021C161416201630121C16238
:104570000021C160022101620021416304214161E7
:10458000002181618163FCF743FF20B14FF4B171D9
:1045900015A000F0F7FD03200190012002900020FB
:1045A00004900520039000200590069001A90D4875
:1045B000FCF7DEFC20B140F26F110BA000F0E2FD31
:1045C000042001900220029001A90648FCF7D0FCCB
:1045D00020B14FF4BC7104A000F0D4FD07B000BDC1
:1045E00000010050680200202E2E2F5372632F6DA1
:1045F00061696E2E6300000000B589B029482A4920
:104600000860002048600021274881600121016185
:104610000021C161416201630121C1620021C160C9
:104620000221016200214163042141610021816175
:104630008163FCF7EDFE20B14FF4CB711BA000F0BD
:10464000A1FD0020069006A91748FCF7CFFB20B17A
:104650004FF4CF7115A000F095FD0120009001905E
:1046600000200390052002900020049005906946E8
:104670000D48FCF77DFC20B140F2AB110BA000F01F
:1046800081FD0C2000900220019069460648FCF74D
:104690006FFC20B14FF4DA7104A000F073FD09B093
:1046A00000BD000000040050BC0200202E2E2F533D
:1046B00072632F6D61696E2E6300000010B50F48A4
:1046C0000F4908600920486000210D488160C160E1
:1046D0004FF4A02101610021416181610121C1618B
:1046E0000021016241628162C162FDF76BFB20B172
:1046F00040F2CB1103A000F045FD10BD0064004066
:10470000DC0300202E2E2F5372632F6D61696E2EF5
:10471000630000000EB50D480D4908600846FEF71D
:1047200001F820B140F2DB110AA000F02BFD0020BF
:1047300000900190002269460548FDF7C6FF20B1B0
:104740004FF4F27103A000F01DFD0EBD0074004097
:10475000200400202E2E2F5372632F6D61696E2E60
:104760006300000008B500BF1948406940F002002E
:10477000174948610846406900F00200009000BFF8
:1047800000BF00BF0846406940F00100486108468C
:10479000406900F00100009000BF00BF00221146F8
:1047A0000B20FEF764FB0B20FEF754FB00221146A2
:1047B0003820FEF75CFB3820FEF74CFB0022114648
:1047C0003C20FEF754FB3C20FEF744FB08BD0000F4
:1047D0000010024000B587B000BF3D48406940F47A
:1047E00000203B4948610846406900F400200190E0
:1047F00000BF00BF00BF0846406940F48000486128
:104800000846406900F48000019000BF00BF00BF6F
:104810000846406940F4003048610846406900F4A9
:104820000030019000BF00BF00BF0846406940F45F
:10483000802048610846406900F48020019000BF54
:1048400000BF00224FF4E1514FF09040FEF768FAAC
:10485000002247F2F4411F48FEF762FA4FF440404D
:10486000029000200390049002A91B48FEF766F90D
:104870004FF4E15002900120039000200490059035
:1048800002A94FF09040FEF759F947F2F440029028
:104890000120039000200490059002A90D48FEF726
:1048A0004DF94FF4004002900C4803900020049012
:1048B00002A94FF09040FEF741F90022114628204E
:1048C000FEF7D5FA2820FEF7C5FA07B000BD0000B4
:1048D00000100240000400480008004800003110A9
:1048E00000B591B034483549086000204860002187
:1048F00032488160C160016141618161FFF7ACFBB9
:1049000020B140F25D212EA000F03CFC4FF480501D
:104910000D900DA92948FFF72FFC20B140F263212B
:1049200027A000F02FFC2548FFF732FD20B14FF4FF
:104930001A7123A000F026FC042008906020099042
:1049400000200A900C9008A91C48FFF73CFD20B1FC
:1049500040F271211AA000F015FC0020059007908C
:1049600005A91648FFF742FB20B14FF41E7114A0B1
:1049700000F008FC0020019002200290002003902B
:104980000490002201A90D48FFF792FC20B140F2EB
:1049900081210BA000F0F6FB01200290042201A966
:1049A0000648FFF785FC20B140F2872104A000F003
:1049B000E9FB11B000BD000000400140B40400203C
:1049C0002E2E2F5372632F6D61696E2E63000000CF
:1049D00010B50C480C4908600820486000210A48BE
:1049E00081604FF6FF71C160002101614161816109
:1049F000FFF732FB20B140F2992104A000F0C2FB86
:104A000010BD000000440140F40400202E2E2F535E
:104A100072632F6D61696E2E6300000000B591B066
:104A200033483449086000204860002131488160E3
:104A3000C160016141618161FFF70EFB20B140F26D
:104A4000FB112DA000F09EFB4FF480500D900DA99E
:104A50002848FFF791FB20B140F2012126A000F089
:104A600091FB2448FFF794FC20B140F2062122A0DC
:104A700000F088FB042008905020099000200A9044
:104A80000C9008A91B48FFF79EFC20B140F20F21B3
:104A900019A000F077FB002005900690079005A96B
:104AA0001448FFF7A3FA20B140F2172112A000F03A
:104AB00069FB0020019001200290002003900490E7
:104AC000002201A90B48FFF7F3FB20B14FF4087156
:104AD00009A000F057FB042201A90648FFF7E8FBF4
:104AE00020B140F2252104A000F04CFB11B000BD24
:104AF000002C0140340400202E2E2F5372632F6DA2
:104B000061696E2E6300000000B587B04FF08040F1
:104B10001649086000204860002114488160C16087
:104B200001618161FFF798FA20B140F2392110A0AC
:104B300000F028FB4FF48050039003A90B48FFF7C7
:104B40001BFB20B140F23F2109A000F01BFB00201D
:104B50000090029069460548FFF748FA20B140F2FC
:104B6000462103A000F00EFB07B000BD7404002036
:104B70002E2E2F5372632F6D61696E2E630000001D
:104B800000BFFEE77047000002480068C0F3022043
:104B9000704700000CED00E010B5002807DA0A07A6
:104BA000140E054A00F00F031B1FD45403E00A073C
:104BB000130E024A135410BD18ED00E000E400E0AB
:104BC00010B5044612488088124908801048C088F1
:104BD00048800F480088104908800D484088488068
:104BE0000E48FBF73BFF00F0010060B110210C48BC
:104BF000FBF70CFC0B480C4908600848FBF7F8FD74
:104C0000094800F057FE204600F036F810BD0000BD
:104C1000B40000206A00002066000020720000201E
:104C2000000400481E95C406C0000020704770476D
:104C30002DE9F04105460E4617461C461C210D483D
:104C4000FBF7E7FA00200B498860C8600846066059
:104C50000461224639461430FBF7C2FA054828633E
:104C600003212846FDF7CCFB10B90120BDE8F081F7
:104C70000020FBE7E801002010B50446FBF7D2FE58
:104C800068B14FF480411748FEF73EF808B901209B
:104C900000E00020144908700846FBF79DFFFBF771
:104CA0009DFE60B11148FBF73DFF11480068401CB4
:104CB0000F4908600D488079401C0C498871FBF74A
:104CC0009FFE10B10B48FBF75DFFFBF763FE10B1D1
:104CD0000948FBF7DDFEFBF76FFE10B10748FBF755
:104CE00003FF10BD000800485200002058000020BB
:104CF00074000020600000206A0000206600002090
:104D000010B5FEF719F8FFF76CF910BD10B59EB09D
:104D10000120149000041590002016900120189096
:104D200002201B90C1031C91C1041D9114A8FEF721
:104D300029FC18B1C3211EA000F024FA0F200F9007
:104D400002201090002011904FF4806012900020FB
:104D5000139002210FA8FEF751FA18B1D12114A027
:104D600000F010FA4FF48C5000904FF480700990CE
:104D700040010A9000200C906846FEF7CBF818B16D
:104D8000DB210BA000F0FEF9FEF7AEFB4FF47A71C9
:104D9000B0FBF1F42046FFF70AF90420FFF7F2F820
:104DA00000221146501EFEF762F81EB010BD000032
:104DB0002E2E2F5372632F6D61696E2E63000000DB
:104DC0001948006840F470001749086017480068E7
:104DD00040F0010015490860084640681449084041
:104DE0001249486008460068124908400F490860A7
:104DF0000846006820F4802008600846406820F4D7
:104E0000FE0048600846C06A20F00F00C8620846ED
:104E1000006B094908400549086300208860C80301
:104E2000014980390860704788ED00E000100240B9
:104E30000CC07FF8FFFFF6FECCFC00FF10B500228F
:104E40000268264B98420BD0B0F1804F08D0244B1B
:104E5000984205D0234B984202D0234B984203D16D
:104E600022F070024B681A431C4B984214D0B0F1E8
:104E7000804F11D01A4B98420ED01A4B98420BD04B
:104E8000194B984208D0194B984205D0184B9842BC
:104E900002D0184B984203D122F44072CB681A43D7
:104EA00022F080034C6943EA040202608B68C3620B
:104EB0000B688362094B98420BD00B4B984208D089
:104EC0000A4B984205D00A4B984202D0094B9842AF
:104ED00001D10B6903630123436110BD002C014024
:104EE0000004004000080040003401400040014040
:104EF000004401400048014030B50C460021816863
:104F000021F47F4142EA032525432943816030BDD6
:104F10000A460021816821F0700142F0070319431D
:104F2000816070472DE9F04104460D4600260027B8
:104F3000B0462068866826F07006686806432248F6
:104F400006402868064320688660686800F00F0104
:104F5000002935D10011082832D2DFE800F02D2ECB
:104F60002F300B212704D5E90313AA682068FFF727
:104F7000C3FF26E02068D0F820802068006A20F077
:104F80000100216808622068876927F0F007286916
:104F900047EA0017206887612068C0F8208010E089
:104FA0002A69A968206800F011F80AE02A69A9684E
:104FB000206800F061F804E003E002E001E000E0B6
:104FC00000BF00BFBDE8F081F8FFFEFF30B50B4623
:104FD000144600210022026A056A25F001050562D7
:104FE000816921F0F00141EA041122F00A021A431A
:104FF0008161026230BD000070B50C46154600218B
:105000000022066A26F0010606628169026A154ED0
:10501000B0420ED0B0F1804F0BD0134EB04208D04A
:10502000124EB04205D0124EB04202D0114EB042E4
:1050300001D1012600E000261EB121F00301294321
:1050400001E041F0010121F0F001F02606EA03162B
:10505000314322F00A0204F00A06324381610262FF
:1050600070BD0000002C014000040040000800401A
:10507000003401400040014030B50B461446002189
:105080000022056A25F0100505628169026A21F493
:10509000704141EA043122F0A00242EA0312816128
:1050A000026230BD70B50C46154600210022066A2A
:1050B00026F0100606628169026A21F4407141EA15
:1050C000052121F470414FF4704606EA033631435E
:1050D00022F0A002A02606EA041632438161026291
:1050E00070BD70B50C46154600210022066A26F4F4
:1050F00080760662C169026A21F00301294321F02A
:10510000F001F02606EA0316314322F420624FF440
:10511000206606EA04263243C161026270BD70B5A2
:105120000C46154600210022066A26F480560662C7
:10513000C169026A21F4407141EA052121F47041FC
:105140004FF4704606EA0336314322F420424FF40E
:10515000204606EA04363243C161026270BD000097
:1051600010B50248FCF712FD10BD0000DC03002062
:1051700010B500210148FBF753F910BD0064004051
:1051800000BFFEE700BFFEE702E008C8121F08C12B
:10519000002AFAD170477047002001E001C1121FB8
:1051A000002AFBD17047000070B504460D46164634
:1051B0002148006840B1FDF7B9FD1F4909688842E0
:1051C00002D900201D494870AE4201DC002070BDAC
:1051D000AC4212DA4FF4617068434FF47A7190FB7D
:1051E000F1F0A04207DD012014494870FDF79EFD53
:1051F000C830114908600020E9E7B44214DD40F2EC
:105200004C4070434FF47A7190FBF1F0A04201DD05
:105210000846DCE7012009494870FDF787FDC830E2
:10522000054908600020D2E7601B4FF47A714843BB
:10523000711B90FBF1F0CAE708000020520000202B
:105240002DE9F041034616274FF0210C03EBC30074
:10525000C0EB8310E04690FBF8F640F6E440704364
:1052600040F6FF7890FBF8F04418A4F5FA7808EBC4
:1052700088084FEA48004FEAE07800EB98784FEA58
:10528000A80808F16405B4F5E67F03DA0020106091
:10529000BDE8F08115600120FAE7000010B51A485A
:1052A00000F098F818480068184988422BD1164831
:1052B0000079012806D11448008915490880124850
:1052C0004089488010484079012806D10E488089DD
:1052D000104908800C48C08948800B488079012813
:1052E00006D10948008A0C4908800748408A48804E
:1052F0000548C079012806D10348808A07490880FB
:105300000148C08A488010BDC00000201E95C40618
:1053100044000020400000204C00002048000020F5
:10532000002202604160521E82600022C26070470B
:10533000027802F001021AB1026842F0040202602F
:10534000026842F003020260816070472DE9F0417B
:1053500004460D4616461F46A5F24D4090B90B4A2D
:1053600039463046FBF770FB00B90BE02146084890
:10537000FFF7DEFF0648C06818B10548C16803485A
:10538000884700BF00BFBDE8F0810000900000200A
:105390000402002010B54FF0FF30084908600849AA
:1053A00008600849086001460748FFF7B9FF4FF059
:1053B000FF30064908600649086010BD84000020DF
:1053C000880000208C0000200402002094000020AF
:1053D0009800002010B504461822034801682046B2
:1053E000FAF7FEFE10BD00009C000020FDF7B0FCA7
:1053F000FFF78CFCFFF7EEF9FFF7B4F9FFF710F8B1
:10540000FFF7A4F8FFF7F8F8FFF758F9FFF782F96C
:10541000FFF704FBFFF778FBFFF762FAFFF7D8FA14
:10542000134A14491448FBF75AF9FFF737FF0122D2
:1054300011034FF09040FDF773FC00F09BF8FFF76D
:10544000A9FF14E000210C48FCF749FF01210B489B
:1054500000F062F802210A4800F05EF803210948D2
:1054600000F05AF800F09AF80348FFF7A9FBE9E7C3
:105470003405002000640040DC03002014020020FA
:1054800068020020BC02002030B502469368D46850
:105490009C4206D26018984201D2012030BD002003
:1054A000FCE7601855681D44A84201D20120F5E7C9
:1054B0000020F3E7F0B504460D4667687E1E1968C4
:1054C000002007E027687F5C05F8017B4F1C07EA96
:1054D0000601401CE7688F4201D09042F2D3196068
:1054E000F0BD70B5134645686C1EC26806E011F841
:1054F000015B0668B554551C05EA04021D1EA3F1A4
:105500000103F4D1C26070BD024909680143014A38
:10551000116070478000002070B505460C46012CD4
:1055200004D0022C08D0032C12D10BE006220A4929
:105530002846FCF7C3F90CE0022208492846FCF78C
:10554000BDF906E0022206492846FCF7B7F900E05B
:1055500000BF00BF70BD0000B400002000000020AC
:105560000400002010B5FDF7E1FB10BD10B50446A6
:10557000002010BD00200649086006480649086062
:105580004FF48070486000208860C8607047000059
:1055900080000020D8000020D801002000B585B090
:1055A0002CE01A48806800906B46082203A917482F
:1055B000FFF780FF082820D1BDF812206B4601A913
:1055C0001248FFF777FFBDF81210884215D10F4936
:1055D00000988860BDF81230BDF8101001AA039839
:1055E000FFF7C4FF002800DA08E0BDF81230BDF86C
:1055F000101001AA0398FFF7A9FE00BF03488068B6
:105600000249C9688842CCD105B000BDD80100204C
:105610002DE9FC4105460F46144604F108063146C3
:105620000F48FFF731FF30B90120FFF76DFF4FF052
:10563000FF30BDE8FC81FFF795FF0090ADF8045006
:10564000A0B2ADF80600082269460548FFF749FFF9
:10565000224639460248FFF744FF3046E9E700009A
:10566000D801002070B504460D46164633462A463A
:1056700021460248FFF7DCFA70BD0000DC03002081
:105680002DE9F05F80460D4616461F466D490E8097
:105690004F806D49A1F800804D8000206B49487013
:1056A0006B4A64214046FFF7CBFD8246694A64217C
:1056B0002846FFF7C5FD834665480088664908808F
:1056C00064480088488000BF00BFBBF1000F13D0C2
:1056D000BAF1000F10D05F480068B0F5967F03DD87
:1056E00001205A4908710AE05A480068F02806DA91
:1056F00000205649087102E00020544908715348BF
:10570000027980215548FDF70BFB55480288554822
:1057100001883046FFF748FD5349086050484288E9
:10572000504841883846FFF73FFD5049086000BFA8
:105730004D4909684D4A1268881A002801DB014664
:1057400000E04142322901DC012100E000218946CC
:10575000B9F1000F0ED04448006844490968084474
:10576000C0F34F00424908800020087101203749EA
:10577000887007E000203E49088001200871002061
:10578000324988703A480088322802DC00203849C3
:10579000088009F0FF0240213048FDF7C1FA2B488C
:1057A000007990B132480088FA280EDD3148D0E9FE
:1057B0000010002359405840014311D1FDF7B6FABB
:1057C000C83000212B4A03C20AE029480088322849
:1057D00006DA0021274A1160516000201B49C87079
:1057E0002448D0E9001000235940584001430ED00E
:1057F000FDF79CFA1F49D1E90031181A71F1000137
:1058000005D200201A49088001201049C8704FF4C1
:1058100000411948FDF778FA0446224620210F4836
:10582000FDF77EFA002012494880144840894FF461
:105830007A71484340F6FF7190FBF1F010490880FF
:10584000BDE8F09F6A0000206600002052000020A2
:10585000780000207C000020600000200004004848
:1058600040000020440000200C0000201800002010
:10587000580000203000002000080048B40000203C
:10588000280000204FF47A72424340F6FF7392FBE7
:10589000F3F2064B1A804FF47A724A4340F6FF73D4
:1058A00092FBF3F2024B1A807047000024000020A4
:1058B0002600002010B5044605480068FBF754FA9E
:1058C0001822214602480068FBF768FA10BD000064
:1058D0009C00002002030405060708090A0B0C0DB2
:1058E0000E0F10100102030405060708090A0B0C2D
:1058F0000D0E0F1000000000000000000102030464
:105900000607080900000000010203042C590008E2
:1059100000000020B400000088510008E059000891
:10592000B4000020C40800009851000800000000E6
:105930000000000000000000000000000000000067
:105940000000000000000000000000000000000057
:105950000000000000000000000000000000000047
:105960000000000000000000000000001A04B00465
:1059700058020203EE028403590137010A000000B5
:105980000000000000000000000000000000000017
:105990000000000000000000000000000000000007
:1059A00000000000000000000000000000000000F7
:1059B00000000000000000000000000000000000E7
:1059C000000000000000000000F8030800000000D4
:1059D00000000000100000000100000000127A002A
:040000050800018965
:00000001FF
